:020000040000FA
:10000000000001308A005E29831A0A28A500030E29
:10001000A6000F288312A500030EA600A6140A0846
:10002000AD008A018313A50E0408A7002008A800CC
:100030002108A9002208AA002308AB002408AC006C
:1000400083128B1E25280B193A28270884002808BC
:10005000A0002908A1002A08A2002B08A3002C0850
:10006000A4002D088A00260E83008312250EA618F0
:10007000831609000130AE00B508031D4228871021
:1000800007124328B503B70803194828203087060C
:100090000B118A112528400883169B009C131C1401
:1000A0001A088312C10001304007C20042088316BB
:1000B0009B009C131C141A088312C2004108A30061
:1000C0004208A1002308A20000343F0DA000A00DAB
:1000D000FC30A0051F08C33920049F00C101C001E6
:1000E000C2014208073C031C86289F149F187628EB
:1000F00083161E088312C0071E0803181E0FC107AF
:10010000D030A000A00B8228C20A7128C10CC00CFC
:10011000C10CC00CC10CC00C1F30C1054008A100AF
:100120004108A200003441308400000803199E28D1
:100130000930A000A00B9A28800B982800341130B9
:1001400083168F000F088312181064001F1380306D
:10015000831691001F169F161F1383129F171F14DB
:100160009A01073099008316050885008312190843
:100170008C11831699013F30850095008113093059
:1001800087000108C0390638810083128B16C03001
:100190008B04BE01851CBE0A0310BE0D0030051D78
:1001A0000130BE0403103E0DBF00C0004B202208EA
:1001B000B0002108AF0003103E0D083EBF00C00094
:1001C0004B202208B2002108B1001B3083169B008F
:1001D0009C131C141A08023C031D192907308312B2
:1001E000BF0065202208C0002108BF004008013C74
:1001F000031CFC2883161929FF3A031D05293F0813
:10020000673C031C0529831619290310AF0DB00D97
:100210000310B10DB20D640087160430BF00E13049
:10022000C1009320BF0B0F2987126430C1009320B7
:10023000831600008312BE01051CBE0A0310BE0D0A
:100240000030851E0130BE0403103E0D103EBF007D
:10025000C0004B202208B4002108B3008712071108
:100260000130AE007329BF013E083F0203184B293D
:10027000640087160230C000FA30C1009320C00B22
:100280003C2987120230C000FA30C1009320C00B15
:100290004429BF0A34297C29360B4F2954290130BF
:1002A000B50087100716B6000034B60803195D299B
:1002B0000130B50087140712B6018E2984011F3062
:1002C0008305113083168F000F0883121F1300302F
:1002D0008316910083129A0107309900B501FF300F
:1002E000B600B7019F280530BA003408BC003308B7
:1002F000BB000530BE0033293D10640000303D18BE
:100300000130013C031D87294C21B7018F29051AB3
:100310008D294C210130B7008F295529B701AE082E
:100320000319D929AE010730BF0065202208B900A2
:100330002108B80030083902031CA629031DA4298E
:1003400038082F020318A6290715A7290711320814
:100350003902031CB929031DB129380831020318D9
:10036000B929BA080319B629BA03B8293D14871266
:10037000BB290530BA0039083002031CD429031DFB
:10038000C5292F0838020318D429BB08031DCB291F
:10039000BC080319D1293B080319BC03BB0387160A
:1003A000D3293D108712D8293408BC003308BB007C
:0603B00064007D29DA293A
:104200000100880001009100010099000100A20056
:10421000010099000100A2000100AA000100AE0007
:104220000000010001002C00020058000400B00052
:08423000000000000000020084
:02400E00D430AC
:00000001FF
;PIC16F684
;CRC=CCEA  CREATED="09-Nov-18 11:00"
