:020000040000FA
:10000000000001308A005929831A0A28A500030E2E
:10001000A6000F288312A500030EA600A6140A0846
:10002000AD008A018313A50E0408A7002008A800CC
:100030002108A9002208AA002308AB002408AC006C
:1000400083128B1E25280B193A28270884002808BC
:10005000A0002908A1002A08A2002B08A3002C0850
:10006000A4002D088A00260E83008312250EA618F0
:10007000831609000130AE00B508031D4228871021
:1000800007124328B5030B118A1125283F08831650
:100090009B009C131C141A088312C00001303F07F8
:1000A000C100410883169B009C131C141A0883127C
:1000B000C1004008A3004108A1002308A2000034A9
:1000C0003E0DA000A00DFC30A0051F08C339200480
:1000D0009F00C001BF01C1014108073C031C8128EA
:1000E0009F149F18712883161E088312BF071E08CD
:1000F00003181E0FC007D030A000A00B7D28C10A36
:100100006C28C00CBF0CC00CBF0CC00CBF0C1F3047
:10011000C0053F08A1004008A20000344030840020
:100120000008031999280930A000A00B9528800B1E
:1001300093280034113083168F000F088312181093
:1001400064001F138030831691001F169F161F1323
:1001500083129F171F149A01073099008316050810
:100160008500831219088C11831699013F30850090
:1001700095008113093087000108C03906388100D5
:1001800083128B16C0308B04BD01851CBD0A031081
:10019000BD0D0030051D0130BD0403103D0DBE0036
:1001A000BF0046202208B0002108AF0003103D0D1B
:1001B000083EBE00BF0046202208B2002108B10060
:1001C0001B3083169B009C131C141A08023C031D51
:1001D000142907308312BE0060202208BF002108C6
:1001E000BE003F08013C031CF72883161429FF3A80
:1001F000031D00293E08673C031C002983161429AF
:100200000310AF0DB00D0310B10DB20D64008716D1
:100210000430BE00E130C0008E20BE0B0A298712D8
:100220006430C0008E20831600008312BD01051CBF
:10023000BD0A0310BD0D0030851E0130BD04031042
:100240003D0D103EBE00BF0046202208B40021082C
:10025000B300871207110130AE006D29BE013D08C1
:100260003E0203184629640087160230BF00FA30A8
:10027000C0008E20BF0B372987120230BF00FA3032
:10028000C0008E20BF0B3F29BE0A2F297629360BCE
:100290004A294F290130B50087100716B600812979
:1002A000B608031958290130B50087140712B601A2
:1002B000832984011F308305113083168F000F08B6
:1002C00083121F1300308316910083129A010730A6
:1002D0009900B501FF30B6009A280530B9003408FE
:1002E000BB003308BA000530BD002E293C10640065
:1002F00000303C180130013C03198029051A82297D
:10030000472983295029AE080319CD29AE010730AA
:10031000BE0060202208B8002108B700300838026B
:10032000031C9A29031D982937082F0203189A29BC
:1003300007159B29071132083802031CAD29031D3C
:10034000A529370831020318AD29B9080319AA29CC
:10035000B903AC293C148712AF290530B90038081D
:100360003002031CC829031DB9292F0837020318BE
:10037000C829BA08031DBF29BB080319C5293A08B3
:100380000319BB03BA038716C7293C108712CC296F
:0E0390003408BB003308BA0064007729CE2978
:104200000100880001009100010099000100A20056
:10421000010099000100A2000100AA000100AE0007
:104220000000010001002C00020058000400B00052
:08423000000000000000020084
:02400E00D430AC
:00000001FF
;PIC16F684
;CRC=402D  CREATED="08-Nov-18 16:00"
